:100000009CC00000B5C00000B3C00000B1C000003B
:10001000AFC00000ADC00000ABC00000A9C0000030
:10002000A7C00000A5C0000007C40000CAC30000AC
:100030009FC000009DC000009BC0000099C0000050
:1000400097C0000095C0000093C0000091C0000060
:100050008FC000008DC000008BC0000089C0000070
:1000600087C0000085C0000083C0000081C0000080
:100070007FC000007DC000007BC0000079C0000090
:1000800077C0000075C0000073C0000071C00000A0
:100090006FC000006DC000006BC0000069C00000B0
:1000A00067C0000065C0000063C0000012011001BD
:1000B00002000008EB03442001000102DC010902F8
:1000C0003E00020100C032090400000102020100EA
:1000D000052400100104240206052406000107057A
:1000E00082030800FF09040100020A00000007055E
:1000F000040210000507058302100005040309042B
:100100001A034C0055004600410020004C006900D5
:100110006200720061007200790000001C034C0054
:1001200055004600410020004300440043002000E9
:10013000440065006D006F00000011241FBECFEF6A
:10014000DAE0DEBFCDBF11E0A0E0B1E0E8ECF0E125
:1001500002C005900D92AC31B107D9F711E0ACE1C6
:10016000B1E001C01D92A733B107E1F725D0AAC7BE
:1001700047CF08950895089580E091E0B4C680E0E7
:1001800091E08AC684B7877F84BF88E10FB6F89470
:1001900080936000109260000FBE80E090E020E845
:1001A0000FB6F89420936100809361000FBEECD2EB
:1001B000C9D05D985D9A08952F923F924F925F92B9
:1001C0006F927F928F929F92AF92BF92CF92DF9267
:1001D000EF92FF920F931F93DF93CF93CDB7DEB7CC
:1001E000D1DF80E091E06CE171E0B3D5789400E07C
:1001F00010E0EE24FF244424552466247724882428
:100200009924AA24BB24CC24DD248CE191E018D7C6
:100210009C014FEF8F3F940709F461C0012B21F43B
:100220007C0101E010E05BC03DB62EB6C70101972E
:10023000880F991F4DB75EB7481B590B0FB6F8943E
:100240005EBF0FBE4DBF01E010E02FC001301105B1
:1002500049F42930310519F489E0482E512C02E087
:1002600010E01FC05FEF2F3F3507D9F002301105B6
:1002700021F4390103E010E014C00330110521F42A
:10028000490104E010E00DC00430110521F45901CA
:1002900005E010E006C00530110519F4690106E01B
:1002A00010E08CE191E0CCD69C01E016F10674F6EA
:1002B000842D60E06AD0862D7BD0882D79D08A2D60
:1002C00077D08C2D75D06CD05D98832D922D9C01AC
:1002D0000FB6F8943EBF0FBE2DBF00E010E080E0E7
:1002E00091E08BD5E5D491CFDA01923049F093308B
:1002F00061F09130F9F4ECEAF0E022E130E01EC068
:10030000EEEBF0E02EE330E019C0813049F08130AF
:1003100018F0823079F408C0ECEFF0E0849107C067
:10032000E0E0F1E0849103C0ECE1F1E08491282F5A
:1003300030E004C0E0E0F0E020E030E0ED93FC933A
:10034000C9010895589859988CE08093B80010928C
:10035000B90084E08093BC00089584EA8093BC00D7
:100360008091BC0087FFFCCF8091B9000895880F71
:10037000862B8093BB0084E88093BC008091BC00F6
:1003800087FFFCCF8091B90008950F931F93182F1A
:10039000062FE3DF812F602FEADF1F910F91089571
:1003A00084E98093BC008091BC0084FDFCCF08955B
:1003B0008093BB0084E88093BC008091BC0087FFE1
:1003C000FCCF8091B90008959C0140913501509176
:1003D00036014617570718F4F90190E043C061153C
:1003E000710511F0AB01F8CF8091E8008E77809312
:1003F000E80040E050E0F0CF80912E01882309F41E
:1004000047C0853009F446C08091E80083FD44C0B0
:100410008091E80082FD36C08091E80080FF22C014
:100420008091F3009091F200782F60E0292F30E066
:10043000262B372B07C081918093F100415050400B
:100440002F5F3F4F4115510519F02830310598F3C2
:1004500090E02830310509F491E08091E8008E7732
:100460008093E8004115510539F6992329F60AC011
:1004700080912E01882361F0853061F08091E80041
:1004800083FD0AC08091E80082FFF2CF80E00895EA
:1004900082E0089583E0089581E008959C014091F1
:1004A0003501509136014617570718F4F90190E0CD
:1004B00044C06115710511F0AB01F8CF8091E800DF
:1004C0008E778093E80040E050E0F0CF80912E01DD
:1004D000882309F448C0853009F447C08091E800BA
:1004E00083FD45C08091E80082FD37C08091E8001F
:1004F00080FF23C08091F3009091F200782F60E09C
:10050000292F30E0262B372B08C084918093F100EF
:100510003196415050402F5F3F4F4115510519F022
:100520002830310590F390E02830310509F491E04E
:100530008091E8008E778093E8004115510531F6EF
:10054000992321F60AC080912E01882361F085301D
:1005500061F08091E80083FD0AC08091E80082FF8D
:10056000F2CF80E0089582E0089583E0089581E06D
:100570000895382F282F2EC0822F8F708093E90086
:10058000231721F4762F942F50E006C07091EC00D1
:100590009091ED005091F00091FF1BC08091EB0015
:1005A0008E7F8093EB008091ED008D7F8093ED0036
:1005B0008091EB0081608093EB007093EC0090934E
:1005C000ED005093F0008091EE0087FD02C080E0C6
:1005D00008952F5F273080F23F703093E90081E06B
:1005E00008950F931F93CF93DF93062FEC0110E034
:1005F0002AC09881992329F16B81E981FA812C81A4
:10060000892F8F70873018F5223010F452E001C026
:1006100056E040E028E030E003C04F5F220F331F78
:100620002E173F07D0F36295660F660F607C991F07
:100630009927991F692B4295407F452B9ADF882384
:1006400031F01F5F25961017A0F281E001C080E015
:10065000DF91CF911F910F91089580912F018823F1
:100660009CF404C080912E018823B9F08091E800A9
:1006700082FFF8CF8091E8008B778093E80008959F
:1006800080912E01882349F08091E80080FFF8CF07
:100690008091E8008E778093E80008954091E4000F
:1006A0005091E50024E68091EC0080FF24C0809109
:1006B000E80080FD1EC080912E01882311F482E0A5
:1006C0000895853011F483E008958091EB0085FF53
:1006D00002C081E008958091E4009091E5008417C4
:1006E000950709F3222311F484E008952150AC0109
:1006F000DACF80E008958091E80082FFDCCFF9CF67
:10070000EF92FF920F931F934FD056D008ED10E059
:10071000F80180818F7780838081806880838081E9
:100720008F7D808319BC10922E0110922A011092A5
:100730002C0110922B0180EEE82EF12CF701808124
:100740008B7F8083F80180818160808380E060E01E
:1007500042E00FDFE1EEF0E080818E7F8083E2EE09
:10076000F0E0808181608083808188608083F701F0
:1007700080818E7F8083F8018081806180831F91DA
:100780000F91FF90EF900895E8EDF0E080818F7E6B
:100790008083E7EDF0E080818160808384E082BF28
:1007A00081E080932D01ACCFE8EDF0E080818E7F79
:1007B00080831092E20008951092DA001092E10016
:1007C00008951F920F920FB60F9211241F932F932B
:1007D0003F934F935F936F937F938F939F93AF93C9
:1007E000BF93EF93FF931091E9008091EC0010927A
:1007F000E9008091F000877F8093F0007894E7D043
:100800001092E9008091F00088608093F0001F70E2
:100810001093E900FF91EF91BF91AF919F918F915C
:100820007F916F915F914F913F912F911F910F9009
:100830000FBE0F901F9018951F920F920FB60F9238
:1008400011242F933F934F935F936F937F938F93D5
:100850009F93AF93BF93EF93FF938091E10082FF4B
:100860000AC08091E20082FF06C08091E1008B7F88
:100870008093E1001CD28091DA0080FF1DC080913E
:10088000D80080FF19C08091DA008E7F8093DA0053
:100890008091D90080FF0CC080E189BD82E189BDD3
:1008A00009B400FEFDCF81E080932E0162DC04C01C
:1008B00019BC10922E015EDC8091E10080FF18C00F
:1008C0008091E20080FF14C08091E2008E7F8093CF
:1008D000E2008091E20080618093E2008091D80084
:1008E00080628093D80019BC85E080932E01DFD10F
:1008F0008091E10084FF2FC08091E20084FF2BC033
:1009000080E189BD82E189BD09B400FEFDCF8091FF
:10091000D8008F7D8093D8008091E1008F7E8093F6
:10092000E1008091E2008F7E8093E2008091E200FE
:1009300081608093E20080912A01882311F084E095
:1009400007C08091E30087FD02C081E001C083E021
:1009500080932E01ACD18091E10083FF27C080916C
:10096000E20083FF23C08091E100877F8093E10054
:1009700082E080932E0110922A018091E1008E7F07
:100980008093E1008091E2008E7F8093E20080916D
:10099000E20080618093E20080E060E042E0E9DD17
:1009A0008091F00088608093F00081D1FF91EF91F9
:1009B000BF91AF919F918F917F916F915F914F9177
:1009C0003F912F910F900FBE0F901F9018951F937E
:1009D000DF93CF93CDB7DEB7AC970FB6F894DEBFF9
:1009E0000FBECDBFEFE2F1E08091F100819321E0F5
:1009F000E733F207C9F7C0DB8091E80083FF3FC10E
:100A000080912F0130913001353009F48DC036309E
:100A100040F43130E1F1313070F0333009F02FC162
:100A200036C0383009F4FDC0393009F40CC1363015
:100A300009F025C19CC0803821F0823809F01FC11F
:100A400008C090912B0180912C018823B1F0926015
:100A500014C0809133018F70873008F010C18093EB
:100A6000E9008091EB0090E025E0969587952A9526
:100A7000E1F7982F91701092E9008091E800877F4C
:100A80008093E8009093F1001092F100D5C0882384
:100A900019F0823009F0F3C090E08F7190700097E8
:100AA00021F0029709F0EBC00CC080913101813038
:100AB00009F0E5C010922C01333081F580932C01B0
:100AC0002DC080913101882349F5209133012F7089
:100AD000822F8150863008F0D2C02093E9008091A7
:100AE000EB0080FF1BC0333021F48091EB0080626B
:100AF00013C08091EB0080618093EB0081E090E077
:100B000002C0880F991F2A95E2F78093EA0010929D
:100B1000EA008091EB0088608093EB001092E9007E
:100B20008091E800877F8BC0882309F0A8C01091CE
:100B300031011F778091E3008078812B8093E3005F
:100B40008091E800877F8093E80087DD8091E8004E
:100B500080FFFCCF8091E30080688093E300112345
:100B600011F482E001C083E080932E0188C0805898
:100B7000823008F084C0809131019091320123E0ED
:100B80008C3D920709F033C083E08C838AE28B832B
:100B90007FB7F894DE0115966EE040E050E011E278
:100BA000E62FF0E010935700849140FF03C0829538
:100BB0008F706F5F8F70282F30E08A3018F0C90176
:100BC000C79602C0C901C0968D939D934F5F5F4F3A
:100BD0004431510529F77FBF8091E800877F8093DA
:100BE000E800CE0103966AE270E0EEDB14C060918B
:100BF000330170913401AE014F5F5F4F75DBBC0173
:100C0000009709F43CC08091E800877F8093E8005A
:100C100089819A8143DC8091E8008B778093E8009A
:100C20002EC0803861F58091E800877F8093E800CE
:100C300080912A018093F1008091E8008E77809363
:100C4000E8000BDD1CC08823D1F490913101923073
:100C5000B0F48091E800877F8093E80090932A01A8
:100C6000FCDC80912A01882331F48091E30087FD28
:100C700002C081E001C084E080932E0180DA80917F
:100C8000E80083FF0AC08091E800877F8093E80036
:100C90008091EB0080628093EB00AC960FB6F894E5
:100CA000DEBF0FBECDBFCF91DF911F910895089594
:100CB0001F9380912E01882371F01091E90080919B
:100CC000EC001092E9008091E80083FF01C07FDE14
:100CD0001F701093E9001F910895FC0180912E016F
:100CE000843099F584899589A689B7890097A105EB
:100CF000B10559F186818F708093E9008091E800F9
:100D000082FF23C04091F3002091F200942F80E0F5
:100D100030E0822B932B892B19F46FEF7FEF04C007
:100D20008091F100682F70E04091F3002091F20073
:100D3000942F80E030E0822B932B892B41F480911B
:100D4000E8008B778093E80002C06FEF7FEFCB0164
:100D50000895FB012EE0DB011D922A95E9F723E0BF
:100D600023832BE337E0318720872CEB36E0338772
:100D70002287958784870895FC0184859585ADDF5A
:100D80009C0197FF02C02EEF3FEFC901089508951F
:100D90000895FC0180912E01843051F58489958954
:100DA000A689B7890097A105B10511F181818F70DE
:100DB0008093E9004091F3002091F200942F80E0AD
:100DC00030E0822B932B892BA9F09091E800809141
:100DD000E8008E778093E80095FD0CC05FDC982FCB
:100DE000882349F48091E8008E778093E80003C05F
:100DF00092E001C090E0892F0895FC0180912E01BE
:100E0000843091F484899589A689B7890097A105D2
:100E1000B10551F081818F708093E9008091E800E5
:100E200080FF02C0CF01B5CF08951F93FC01162F9C
:100E300080912E018430E1F484899589A689B7894F
:100E40000097A105B105A1F081818F708093E90021
:100E50008091E80085FD08C08091E8008E7780933E
:100E6000E8001CDC882329F41093F10080E001C025
:100E700082E01F9108951F93182FFB0184859585AB
:100E8000612FD3DF882319F06FEF7FEF02C0612F4E
:100E900070E0CB011F910895CF93DF93EC01409652
:100EA000FC018BE0DF011D928A95E9F782E08C83DB
:100EB000898783E08E87CE01019661E092DB8823EB
:100EC00071F0CE01069661E08CDB882341F0CE0103
:100ED0000B9661E086DB882319F081E001C080E099
:100EE000DF91CF910895CF93DF93EC018091E800DB
:100EF00083FFA3C0888190E02091330130913401B9
:100F00002817390709F099C080913001813269F0C2
:100F1000823220F4803209F090C03CC0823209F461
:100F20006BC0833209F089C07AC080912F01813A69
:100F300009F083C08091E800877F8093E80080916A
:100F4000E80080FFFCCF8C899D89AE89BF898093A2
:100F5000F100292F3A2F4B2F55272093F1009D01A7
:100F6000442755272093F1008B2F9927AA27BB27C9
:100F70008093F100888D8093F100898D8093F1003A
:100F80008A8D8093F1008091E8008E778093E8004D
:100F900064DB53C080912F01813209F04EC08091F3
:100FA000E800877F8093E80005C080912E018823A8
:100FB00009F443C08091E80082FFF7CF8091F100EF
:100FC0009091F1002091F1003091F1008C8B9D8B7C
:100FD0002E8B3F8B8091F100888F8091F100898F5B
:100FE0008091F1008A8F8091E8008B778093E800F0
:100FF00034DBCE01CCDE21C080912F018132E9F4B7
:101000008091E800877F8093E80027DB80913101A1
:1010100090913201998B888BCE01ADD80EC0809112
:101020002F01813251F48091E800877F8093E8009E
:1010300014DBCE0160913101ABDEDF91CF910895D9
:10104000CF93DF93EC014B8140FF1AC046FF0AC0EB
:101050004F7B4B838E819F8101969F838E838A81F4
:10106000282F2BC042FF13C0E881F9818081282FEF
:10107000332727FD30952115310529F440624B8334
:101080002FEF3FEF1BC03196F983E88311C0EA854B
:10109000FB85CE0109959C0197FF0AC09B812F5FBC
:1010A0003F4F11F080E201C080E1892B8B83E8CFB4
:1010B0008E819F8101969F838E8330E0C901DF91ED
:0810C000CF910895F894FFCFD1
:1010C80000831000000104100000018208000001E4
:0C10D8000000000000000000000000000C
:00000001FF
