:100000000C9456010C9487010C9487010C94870181
:100010000C9487010C9487010C9487010C94870140
:100020000C9487010C9487010C9487010C94870130
:100030000C9487010C9487010C9487010C94870120
:100040000C9487010C9487010C9487010C94870110
:100050000C9487010C9487010C9487010C948E03F7
:100060000C9487010C9487010C9487010C948701F0
:100070000C9487010C9487010C9487010C948701E0
:100080000C9487010C9487010C9487010C948701D0
:100090000C9487010C9487010C9487010C94D8036D
:1000A0000C9487010C9487010C9487010C948701B0
:1000B0000C9487010C9487010C9487010C948701A0
:1000C0000C9487010C9487010C9487010C94870190
:1000D0000C9487010C9487010C9487010C94870180
:1000E0000C94870119021C020B020F021302530227
:1000F000200224022A022E02320238023C0240026E
:10010000530246024A024E020C94BF020C944E0265
:100110000C9489030C94E2020C944A020C94400261
:100120000C9477030C940F020C9432020C945A0333
:100130000C94CE020C9424020C9446020C941902E6
:100140000C9413020C9462030C943C020C9438023D
:100150000C941C020C94F2050C9495010C942E0244
:100160000C940B020C94BE020C942A020C9489018C
:100170000C9420020C945302000022002500280059
:100180002B002E003100340002010000050108019F
:100190000B0105050505070508080808020202020B
:1001A0000A0A080804040404010101010101010113
:1001B0000303030303030303040707070C0C0C0CDE
:1001C0000C0C0C0C020202020606060606060606C7
:1001D0000B0B0B0B0B0B0B0B050505080807070496
:1001E00004040A0A0A0A0A0A010210202008081058
:1001F0002040102040800201020108040201010297
:10020000040810204080804020100804020180046F
:1002100002018040201008040201080402010102CA
:10022000040810204080010204081020408004408F
:100230008004800810102040040810204080000036
:100240000A0B02090C0D0E08070304010000000050
:10025000000000000000000000000000000000009E
:10026000000000000000000000001211100000005B
:10027000000000000000000000000000000000007E
:10028000000000000000000000000000000000006E
:10029000000000004B49060708090A0C0B0D4A1024
:1002A0001129264C4F4E4D121300F20511241FBE8A
:1002B000CFEFD1E2DEBFCDBF00E00CBF12E0A0E087
:1002C000B2E0E4E2FCE000E00BBF02C007900D9258
:1002D000A231B107D9F722E0A2E1B2E001C01D923C
:1002E000AE3BB207E1F711E0C6E5D1E000E006C0A1
:1002F00021970109802FFE010E940306C535D10711
:1003000080E00807A9F70E940A050C9410060C94D7
:100310000000E0913302F0913402309729F01092FE
:10032000AD021092AC0219940895CF93DF93AC0103
:10033000E091B002F091B1023097F1F09091AF02EC
:100340008091AE029817C0F090E0292F30E0261778
:10035000370754F4D901AD5EBD4FEA01C20FD31F78
:1003600088818C939F5FF1CF1092AF026093AE02B1
:10037000CB01DF91CF911994DF91CF910895CF9266
:10038000DF92EF92FF920F931F93CF93DF936C0155
:100390007A018B01C0E0D0E0CE15DF0589F0D801ED
:1003A0006D918D01D601ED91FC910190F081E02DD0
:1003B000C6011995892B11F47E0102C02196ECCF5C
:1003C000C701DF91CF911F910F91FF90EF90DF90C8
:1003D000CF900895362F90E0FC01E25CFD4F4491F0
:1003E000FC01E851FE4F2491FC01EE56FE4F949122
:1003F000992309F46BC0442309F455C050E0FA0175
:100400003197E231F10508F04EC08827EE58FF4FD2
:100410008F4F0C940306809180008F7707C08091E6
:1004200080008F7D03C080918000877F8093800053
:100430003AC084B58F7702C084B58F7D84BD33C048
:100440008091B0008F7703C08091B0008F7D809342
:10045000B00029C0809190008F7707C080919000F4
:100460008F7D03C080919000877F809390001BC098
:100470008091A0008F7707C08091A0008F7D03C07E
:100480008091A000877F8093A0000DC08091200103
:100490008F7707C0809120018F7D03C0809120015C
:1004A000877F80932001E92FF0E0EE0FFF1FE858CF
:1004B000FE4FA591B4918FB7F894EC91311103C020
:1004C00020952E2301C02E2B2C938FBF08953FB76C
:1004D000F8948091A1029091A202A091A302B09100
:1004E000A40226B5A89B05C02F3F19F00196A11DB7
:1004F000B11D3FBFBA2FA92F982F8827820F911DBA
:10050000A11DB11DBC01CD0142E0660F771F881F00
:10051000991F4A95D1F7089585ED8093BC0080918D
:10052000BC0084FDFCCF1092AB02089540915502AF
:10053000262F30E0240F311D21323105DCF42091CB
:10054000AB022430C9F4FC0180E090E0861758F437
:10055000309155022191DC01AB5CBD4FA30FB11D61
:100560002C930196F3CF80915502680F609355024A
:1005700080E0089581E0089582E008950895E09173
:10058000AF028091AE02E81730F4F0E0ED5EFD4F6F
:10059000808190E008958FEF9FEF08959091AF02D2
:1005A0008091AE02981750F4E92FF0E0ED5EFD4F18
:1005B000208130E09F5F9093AF0202C02FEF3FEFAA
:1005C000C90108958F929F92AF92BF92CF92DF920E
:1005D000EF92FF920F931F93CF93DF9382EB92E002
:1005E0000E94CE02B82E82EB92E00E94CE02A82E8C
:1005F00082EB92E00E94CE02982E82EB92E00E9463
:10060000CE02882EC0E0D0E000E010E0209719F480
:10061000B09212020BC0C130D10519F4A09212029F
:1006200005C0C230D10531F4909212026801E12C6C
:10063000F12C20C0C330D105C9F780921202F6CF49
:10064000F701E00FF11FEC56FD4FE49190E00E2C06
:1006500002C0959587950A94E2F780FF15C061E086
:100660008E2F0E94EA018FEFE81AF80A98E0E91647
:10067000F10461F0809112029FEFC91AD90A96E144
:10068000C916D10484F7DCCF60E0EACF085F1F4FC2
:1006900021960832110509F0B9CFDF91CF911F9152
:1006A0000F91FF90EF90DF90CF90BF90AF909F9011
:1006B0008F9008958091AE0290E02091AF02821B4E
:1006C00091090895CF93DF931F921F92CDB7DEB7A4
:1006D000CB01642F49835A830E9496024981842F5B
:1006E0005A81952F0F900F90DF91CF910895CF935E
:1006F000DF931F92CDB7DEB7698361E0CE0101962B
:100700000E94960281E090E00F90DF91CF910895D2
:10071000089580E090E008950E940B061F920F92CA
:100720000FB60F9211242F933F938F939F93AF9304
:10073000BF9380919D0290919E02A0919F02B091E3
:10074000A00230919C0223E0230F2D3720F4019664
:10075000A11DB11D05C026E8230F0296A11DB11DE4
:1007600020939C0280939D0290939E02A0939F02EF
:10077000B093A0028091A1029091A202A091A30245
:10078000B091A4020196A11DB11D8093A102909386
:10079000A202A093A302B093A402BF91AF919F9134
:1007A0008F913F912F910F900FBE0F901F90189532
:1007B0001F920F920FB60F9211240BB60F922F9328
:1007C0003F934F935F936F937F938F939F93AF93D9
:1007D000BF93EF93FF938091B900887F803609F42F
:1007E0009CC068F5883209F45BC090F4803109F44C
:1007F00054C038F4882309F4F6C0883009F44DC099
:10080000F6C0883109F44CC0803209F45DC0EFC0F5
:10081000803409F468C048F4803309F455C0883343
:1008200009F0E5C080937802D8C0803509F44FC044
:10083000883509F45DC0883409F0D9C0D6C088393C
:1008400009F4C7C0A8F4883709F467C038F48836BB
:1008500009F463C0803709F460C0C9C0883809F45E
:10086000B8C0803909F45FC0803809F0C0C05BC0EF
:10087000803B09F486C038F4803A09F466C0883AAF
:1008800009F47FC0B4C0803C09F4A7C0883C09F4D7
:10089000A4C0883B09F48AC0AAC080919B0210C002
:1008A00090919A0280919902981770F5E0919A02BE
:1008B00081E08E0F80939A02F0E0E758FD4F80812F
:1008C0008093BB0085EC86C0809378028EC0E09157
:1008D0009A0281E08E0F80939A028091BB00F0E033
:1008E000E758FD4F808390919A02809199026EC0E3
:1008F000E0919A0281E08E0F80939A028091BB0072
:10090000F0E0E758FD4F80838091AA0281116DC00D
:1009100081E08093A90284EA61C083E08093AB0206
:1009200010927702CFCF80917702803208F051C0C9
:10093000E091770281E08E0F809377028091BB0077
:10094000F0E0E95AFD4F8083BDCF85EC8093BC0079
:100950001092AB0280917702803230F4E0917702FE
:10096000F0E0E95AFD4F10826091770270E0E0916B
:10097000A502F091A60287E592E019951092770200
:1009800036C084E08093AB0210925602109255025A
:10099000E091A702F091A80219958091550281116A
:1009A00005C081E08093550210923502E091560215
:1009B00081E08E0F80935602F0E0EB5CFD4F80816A
:1009C0008093BB009091560280915502981708F4CD
:1009D00079CF85E88093BC000AC085EC8093BC0089
:1009E0001092AB0204C0109278020E948C02FF9118
:1009F000EF91BF91AF919F918F917F916F915F9197
:100A00004F913F912F910F900BBE0F900FBE0F9003
:100A10001F901895789484B5826084BD84B58160F8
:100A200084BD85B5826085BD85B5816085BD8091B9
:100A30006E00816080936E00109281008091810031
:100A40008260809381008091810081608093810029
:100A5000809180008160809380008091B1008460EB
:100A60008093B1008091B00081608093B00080914C
:100A700091008260809391008091910081608093C9
:100A80009100809190008160809390008091A100FE
:100A900082608093A1008091A10081608093A10079
:100AA0008091A00081608093A000809121018260EC
:100AB00080932101809121018160809321018091A7
:100AC000200181608093200180917A00846080936E
:100AD0007A0080917A00826080937A0080917A0017
:100AE000816080937A0080917A00806880937A0098
:100AF0001092C1001092AF021092AE021092AD029D
:100B00001092AC021092AB0281E08093AA02109284
:100B1000A90261E084E10E94EA0161E085E10E94AE
:100B2000EA018091B9008E7F8093B9008091B9006D
:100B30008D7F8093B90088E48093B80085E480932A
:100B4000BC0089E891E09093A8028093A70285E910
:100B500091E09093A6028093A50282E18093BA006F
:100B60008CE08093B80082EE92E09093B102809383
:100B7000B002C4E9D2E0FE01849160E00E94EA0183
:100B80002196F2E0CA3ADF07B1F7C0E0D0E00E9458
:100B900067024B015C0184E6C82ED12CE12CF12CBC
:100BA0000E946702DC01CB0188199909AA09BB09D7
:100BB000883E9340A105B10558F021E0C21AD10842
:100BC000E108F10888EE880E83E0981EA11CB11C94
:100BD000C114D104E104F10419F72097C1F20E9475
:100BE0000000D5CFE2EBF2E01382128288EE93E0B0
:100BF000A0E0B0E084839583A683B78384E092E08D
:100C0000918380830895EE0FFF1F881F8BBF07908D
:100C1000F691E02D199481E090E0F8940C94100680
:040C2000F894FFCF76
:100C240000000000770362038903BE025A03CE0268
:020C3400BF02FD
:00000001FF
